:020000040000FA
:1000000000008A110A12E92BF200030E8301F100AD
:100010000A088A01F000040883160313A80083125B
:1000200003130B113830810083160313A4018312CC
:1000300003130D1F1E2883160313A40A831603132C
:100040002408013A031D34288A110A122B258A112B
:100050000A12831603132508013A031D34288A1156
:100060000A1246258A110A128316031328088312DE
:100070000313840070088A008301710E8300F20E5E
:10008000720E090083120313AD007F08B0007E08D2
:10009000AF007D08AE000530FF002D088A110A125E
:1000A00048268A110A1283120313B100B2013108E3
:1000B000343EAD000030B30000300318320FB307F8
:1000C0000430AD070318B30A2D088312031384000C
:1000D0008313831203133318831783120313000847
:1000E00083120313B100FD002E08FE002F08FF004D
:1000F00030088A110A12D6258A110A1208008312C2
:100100000313C30A64304302031C562AC30183123B
:100110000313A40103308312031324020318562A85
:100120000530FF0024088A110A1248268A110A1293
:1001300083120313A500A6012508343EA700003052
:10014000A80000300318260FA807A70A0319A80A59
:100150000030AA000130A9002408003C0319B72888
:1001600083120313A90DAA0D013E031CB0288312AC
:100170000313070883120313AB00AC012B08A90576
:100180000030AA052A08AC002908AB002408003C6E
:100190000319D428031083120313AC1B0314AC0CF3
:1001A000AB0C013E031CCA28831203132B08A900C1
:1001B0002708831203138400831383120313281860
:1001C0008317290883120313800083120313250861
:1001D000343EA7000030A80026080318260FA80701
:1001E0002708831203138400831383120313281830
:1001F000831783120313000883120313A90029082D
:10020000031D3A292508343EA7000030A80026081F
:100210000318260FA807A70A0319A80A270883129C
:100220000313840083138312031328188317831284
:100230000313000883120313A9002908031D3A2998
:100240002508343EA50026080318260F003EA60008
:100250000330A5070318A60A250883120313840098
:10026000831383120313261883170030831203139A
:10027000800061290530FF008312031324088A11CE
:100280000A1248268A110A1283120313A500A60136
:100290002508343EA50000300318260F003EA600B6
:1002A0000330A5070318A60A250883120313840048
:1002B0008313831203132618831701308312031349
:1002C00080000530FF008312031324088A110A12EC
:1002D00048268A110A1283120313A500A6012508D5
:1002E000343EA50000300318260F003EA600023061
:1002F0002507A700A801A80D2608A807270883122C
:1003000003138400831383120313281883178312A3
:100310000313000883120313A9002908031DBB2936
:1003200003302507A700A801A80D2608A80727085D
:100330008312031384008313831203132818831773
:1003400083120313000883120313A900013A031D4B
:10035000BB290430A5070318A60A25088312031336
:10036000840083138312031326188317003083122B
:1003700003138000E2290530FF00831203132408D1
:100380008A110A1248268A110A1283120313A50041
:10039000A6012508343EA50000300318260F003EB4
:1003A000A6000430A5070318A60A25088312031324
:1003B00084008313831203132618831701308312DA
:1003C000031380000530FF008312031324088A11F1
:1003D0000A1248268A110A1283120313A500A601E5
:1003E0002508343EA7000030A80000300318260F6F
:1003F000A8072508343EA9000030AB0026080318E2
:10040000260FAB07A90A0319AB0A290883120313A5
:1004100084008313831203132B188317831203138F
:10042000000883120313AC0027088312031384000F
:10043000831383120313281883172C0883120313C2
:100440008000831203132508343EA50026080318F4
:10045000260F003EA60002302507A700A801A80D20
:100460002608A8070330A5070318A60A2508831243
:100470000313840083138312031326188317831234
:100480000313000883120313A90027088312031320
:1004900084008313831203132818831729088312F7
:1004A0000313800083120313A40A8A28080083120E
:1004B0000313A000033020020318952A0230831290
:1004C00003138A006C30831203132007031C6B2A6A
:1004D000831203138A0A82006F2A7C2A892A8316D0
:1004E0000313070883120313A10021100130210414
:1004F000831603138700952A8316031307088312B4
:100500000313A100A11002302104831603138700F6
:10051000952A83160313070883120313A1002111E0
:10052000043021048316031387000530FF00831273
:10053000031320088A110A1248268A110A1283120C
:100540000313A100A2012108343EA0000030A30043
:1005500000300318220FA30720088312031384001E
:100560008313831203132318831701308312031399
:100570008000831203132108343EA0000030A30042
:1005800022080318220FA307A00A0319A30A2008B0
:100590008312031384008313831203132318831716
:1005A0000130831203138000831203132108343EA9
:1005B000A10022080318220F003EA20002302107EA
:1005C000A000A301A30D2208A30720088312031390
:1005D00084008313831203132318831701308312BB
:1005E000031380000330831203132107A000A3012B
:1005F000A30D2208A307200883120313840083138A
:10060000831203132318831701308312031380000E
:10061000043083120313A1070318A20A21088312CE
:1006200003138400831383120313221883170130EA
:10063000831203138000080083120313D4000330D5
:1006400054020318482B0330831203138A003130FD
:10065000831203135407031C302B831203138A0ADB
:100660008200412B392B342B023083160313A20056
:10067000482B033083160313A2000130A100A00110
:10068000482B033083160313A2000330A100A001FE
:10069000080083120313D50A19305502031CC12B1D
:1006A000D50183120313080883120313D100FE300F
:1006B0005105831203138800080883120313D10025
:1006C000FD305105831203138800080883120313B9
:1006D000D100FB30510583120313880083120313EA
:1006E0005608A03E83120313D10000300318013EC8
:1006F000D20051088312031384008313831203135F
:100700005218831783120313000883120313D300B4
:10071000663ED10000300318013ED200510883121A
:100720000313840083138312031352188317831255
:10073000031300088600013083120313D1008312D3
:1007400003135608003C0319AB2B83120313D10D7E
:10075000013E031CA52B831203135109D3008312FE
:100760000313080883120313D3055108530483129B
:100770000313880083120313D60A033056020318AA
:10078000D601080083160313860183120313690838
:1007900083120313860083160313080883120313BE
:1007A000D000FE305005831603138800080883121A
:1007B0000313D000FD30500583160313880008088A
:1007C00083120313D000FB305005831603138800F7
:1007D00008001630FE000630FF0080308A110A1231
:1007E000F5258A110A1283120313C5007F08C4007D
:1007F0001830C6000630C700831203134408C8002F
:100800004508C900FF30C407031CC5034808490454
:100810000319812C04304607C800C901C90D4708D7
:10082000C9074808FE004908FF0080308A110A12F3
:10083000F5258A110A1283120313CB007F08CA0020
:100840004608FE004708FF0080308A110A12F5258D
:100850008A110A1283120313CD00C9007F08CC004D
:10086000C80002304607C800C901C90D4708C907BA
:100870004808FE004908FF0080308A110A12F52559
:100880008A110A1283120313C900CF007F08C8001F
:10089000CE00831203134A08CE004B08CF00FF306E
:1008A000CA07031CCB034E084F0403197A2C4C08CB
:1008B000FE004D08FF0080308A110A12E2258A11DD
:1008C0000A1283120313CE00480883120313840014
:1008D000831383120313491883174E0883120313DB
:1008E000800083120313CC0A0319CD0AC80A031926
:1008F000C90A492C063083120313C6070318C70A16
:10090000FC2B8A110A12852E080083120313ED0AAC
:1009100064306D02031CE22CED01003083120313DE
:10092000EB00A630EA00EC016A08FD006B08FE004F
:100930000030FF0000308A110A1242208A110A1288
:1009400002308316031327020318B82C83160313EF
:100950002608031DB82C83160313A70A27088A113B
:100960000A121C238A110A12013083160313A600EF
:10097000003083120313EB00A630EA00EC016A0892
:10098000FD006B08FE000030FF0001308A110A12E2
:1009900042208A110A128316031327080319E22C36
:1009A000831603132608031DE22C83160313A703E3
:1009B00027088A110A121C238A110A120130831691
:1009C0000313A60008008316031327088A110A12CE
:1009D0001C238A110A128A110A12C2238A110A12CE
:1009E00000308A110A1257228A110A1201308A1124
:1009F0000A1257228A110A1202308A110A12572249
:100A00008A110A128A110A12A3258A110A128A115E
:100A10000A1278258A110A12080083120313DC0ACD
:100A200064305C02031C2A2DDC01831603132308A7
:100A3000831203136E0603192A2D8316031323084A
:100A4000831203136E020318272DEE0A2A2D831238
:100A50000313EE03080083120313DB0A831203134C
:100A60006E08831203135B02031C3D2DDB01013072
:100A70008A110A1269268A110A12080083120313C6
:100A8000DA0A32305A020318DA01080002308312FF
:100A90000313590203185C2D8312031308088312F1
:100AA0000313D800D81108305804831203138800A8
:100AB00083120313D90A772D8312031308088312B4
:100AC0000313D800F73058058312031388008312EC
:100AD0000313D90100308A110A1269268A110A12F9
:100AE000831203130D13831603139C1B003008009D
:100AF00083160313080883120313D700F730570532
:100B00008316031388000800831203130D130808CB
:100B100083120313E3006313E401831203130D1F15
:100B2000942D83120313E40A83120313640EF03925
:100B3000E5000310E50D0310E50D6508630483125D
:100B40000313880008008316031305088312031398
:100B5000E200E210023062048316031385000508E8
:100B600083120313E200621104306204831603133C
:100B70008500080883120313E200BF306205831664
:100B800003138800080883120313E200DF306205B4
:100B90008316031388009C120D17831203130B177F
:100BA000831603131C149C141C110800003A03192B
:100BB000DA2D08007E08840083137F1883177D08D0
:100BC00080000800003A0319E92D803A0319F02D3E
:100BD00000347E08840083137F1883170008080000
:100BE0007F088A007E0882000800003A0319FD2D64
:100BF000803A0319072EFF0100347E088400831316
:100C00007F1883170008FF00840A000808008A1173
:100C10000A12F025FD00FE0FFF03FF0A8A110A12D7
:100C2000F025FC007D08FF007C0808000834003433
:100C30009D3406346E340034013400349E3406345E
:100C4000A3340034013400349F340634A534003416
:100C500001340034963406346634003404340034ED
:100C60009A340634A034003403340034A0340634FB
:100C7000A634003401340034A1340634A7340034DF
:100C800001340034A2340634A93400340134003471
:100C900083120313DD007F08DE00DF010830E0006F
:100CA000831203135D1C562E5E08DF0783120313A5
:100CB0005D08E1000310610CDD0003105E0DE10032
:100CC000DE006003E100E0006108031D502E5F08B4
:100CD000080083160313A5000800831203130B11E9
:100CE0008B168B173830810083160313811208008E
:100CF0008316031381113830831203138100831686
:100D0000031301148110011108008A110A12E3244F
:100D10008A110A128A110A1278268A110A128A1175
:100D20000A126D268A110A12942E0800F734B7347D
:100D3000B634FF3403340334033417341734003427
:060D40000134013400340F
:00000001FF
